:100000000C943A010C9459010C9459010C94590127
:100010000C9459010C9459010C9459010C949306B9
:100020000C9459010C9459010C9459010C945901E8
:100030000C9459010C9459010C9459010C945901D8
:100040000C9459010C9459010C9459010C945901C8
:100050000C9459010C9459010C9459010C945901B8
:100060000C9459010C9459010C9459010C945901A8
:100070000C9459010C9459010C9459010C94590198
:100080000C9459010C9459010C9459010C94590188
:100090000C9459010C945901000000000000005F0D
:1000A00000000003000300143E143E14242A7F2A9B
:1000B000124333086661364955225000050300009B
:1000C000001C2241000041221C0014083E081408B4
:1000D000083E0808005030000008080808080060C2
:1000E00060000020100804023E5149453E00040211
:1000F0007F00426151494622414949361814127F16
:100100001027454545393E494949320101710907E2
:100110003649494936264949493E003636000000ED
:10012000563600000814224100141414141400411F
:1001300022140802015109063E4159555E7E090903
:10014000097E7F494949363E414141227F41414133
:100150003E7F494949417F090909013E4141493AE8
:100160007F0808087F00417F4100304040403F7FCA
:10017000081422417F404040407F020C027F7F02F2
:1001800004087F3E4141413E7F090909061E2121A5
:10019000215E7F09090976264949493201017F011B
:1001A000013F4040403F1F2040201F7F2010207F04
:1001B00041221C224107087008076151494543004C
:1001C0007F41000002040810200000417F0004026B
:1001D0000102044040404040000102040020545409
:1001E00054787F4444443838444444443844444474
:1001F0007F385454541804047E0505085454543C64
:100200007F0804047800447D40002040443D007F86
:100210001028440000417F40007C047804787C086A
:1002200004047838444444387C1414140808141422
:10023000147C007C080404485454542004043F44B3
:10024000443C4040207C1C2040201C3C4030403C32
:1002500044281028440C5050503C4464544C4400F2
:100260000836414100007F0000414136080002018C
:100270000204020011241FBECFEFD0E2DEBFCDBFCB
:1002800011E0A0E0B1E0EEECFFE000E00BBF02C047
:1002900007900D92A831B107D9F711E0A8E1B1E0BC
:1002A00001C01D92A832B107E1F70E94AA060C9482
:1002B000E5070C94000093E89093B00091E09093D0
:1002C000B1008093B300089590931D0180931C01A9
:1002D00026E330E020930040009779F480EF90E02F
:1002E000909319018093180180E491E090931B0191
:1002F00080931A0188E490E034C08130910579F44C
:1003000080E491E0909319018093180180EF90E0D0
:1003100090931B0180931A0188EE90E022C08230F6
:10032000910579F480EF90E0909319018093180182
:1003300080E491E090931B0180931A0188E890E09B
:1003400010C0039781F480E491E0909319018093A9
:10035000180180EF90E090931B0180931A0188E2CE
:1003600090E0809300418AE290E08093004080E03A
:1003700090E090930041809300418091180190910A
:100380001901019790930041809300418BE290E026
:100390008093004080E090E0909300418093004182
:1003A00080911A0190911B010197909300418093D5
:1003B00000410895CF93873750F4883050F08D3343
:1003C00050F48F3150F4803150F0C2E009C086E71C
:1003D00002C088E004C0C0E003C0C1E001C0C3E0C7
:1003E00021EB30E020930040C0930041682F70E083
:1003F00080E090E00E9459079B01AC0160E070E052
:1004000080EF94E40E94C3060E942B0770E002C0B4
:1004100075956795CA95E2F760930041CF9108956D
:100420000F931F93CF93DF93CDB7DEB728970FB607
:10043000F894DEBF0FBECDBF29833A834B835C8324
:100440006D837E838F83988769817A812B813C813C
:100450004D815E818F819885EAE2F0E0E093004073
:10046000709300416093004130930041209300411C
:10047000EBE2F0E0E09300405093004140930041F4
:100480009093004180930041ECE2F0E0E093004063
:100490002F5F3F4F261B370B0196841B950B2817A8
:1004A000390790F4682F6770629FA001639F500D19
:1004B000112473E0969587957A95E1F7829FB001B4
:1004C000839F700D112411C0622F6770689FA00177
:1004D000699F500D112463E0369527956A95E1F7E1
:1004E000289FB001299F700D1124842F877081509F
:1004F00028F01093004100930041F9CFCA0123E096
:10050000969587952A95E1F7860F971F019708F131
:10051000109300410093004110930041009300416B
:10052000109300410093004110930041009300415B
:10053000109300410093004110930041009300414B
:10054000109300410093004110930041009300413B
:10055000DDCF28960FB6F894DEBF0FBECDBFDF917A
:10056000CF911F910F910895EF92FF920F931F93D8
:10057000CF93DF93CDB7DEB728970FB6F894DEBFE1
:100580000FBECDBF29833A834B835C836D837E830B
:100590008F83988789819A81EB80FC806D817E8131
:1005A000AF81B8852AE230E020930040909300416B
:1005B00080930041F0920041E09200412BE230E054
:1005C000209300407093004160930041B09300413C
:1005D000A09300412CE230E020930040E816F90699
:1005E000A0F0A8019B018A01A217B30760F04E5F3B
:1005F0005F4FF80100811181109300410093004189
:100600002F5F3F4FF0CF0196E9CF28960FB6F894B1
:10061000DEBF0FBECDBFDF91CF911F910F91FF9035
:10062000EF9008950F931F93CF93DF93CDB7DEB76D
:1006300028970FB6F894DEBF0FBECDBF10921F01F2
:1006400010921E0110922101109220011A8219822B
:1006500080911801909119010197482F9C838B83F9
:100660001E821D8280911A0190911B01019798872B
:100670008F83009124011091250120E03A815C8153
:1006800060E07E8198850E94100228960FB6F8944B
:10069000DEBF0FBECDBFDF91CF911F910F910895A7
:1006A00086E08093750080E8809374003F9A249AD6
:1006B0008FEC97E00197F1F700C0000047988FE3B7
:1006C0009CE90197F1F700C00000479A9FEF2DEEDB
:1006D00082E0915020408040E1F700C0000088E2B5
:1006E00090E08093004081E190E0809300409FEF94
:1006F00026E781E0915020408040E1F700C00000F3
:1007000021E030E08BEC90E08093004020930041AA
:1007100080EC90E08093004088E096E29093004166
:100720008093004120E130E081EC90E08093004034
:100730002093004185EC90E0809300408EE395E3A8
:10074000909300418093004125EB30E087EC90E0EE
:10075000809300402093004121E030E086EF90E05C
:10076000809300402093004180E090E0909300410E
:100770008093004125E530E08AE390E080930040DB
:100780002093004181E090E00E9464010E941203E6
:1007900010921F0110921E0110922101109220014F
:1007A00010922501109224018FEF9FEF9093230167
:1007B0008093220189E290E0809300409FE728E344
:1007C00081E0915020408040E1F700C0000020E02F
:1007D00030E085E390E08093004020930041EAE61A
:1007E000F0E08081806280832C9A0895CF92DF921E
:1007F000EF92FF920F931F93CF93DF93F0911E011F
:10080000E0911F0120912001309121018A30E1F413
:1008100010921F0110921E01285F3F4F309321015B
:100820002093200180911A0190911B01281739070C
:1008300008F49FC0DF91CF911F910F91FF90EF902F
:10084000DF90CF900C94120390EE980F9F3508F034
:1008500090C0B901695F7F4F992787FD9095809778
:10086000A5E0A89FA001A99F500D112448565F4FF5
:100870008BE290E080930040309300412093004150
:1008800070930041609300418F2F9E2F8C010C5F6D
:100890001F4FEAE2EE2EF12CFCE2CF2ED12C481BAA
:1008A000590B0817190750F1E0920040909300414E
:1008B000809300419093004180930041C09200409A
:1008C000FA01E80FF91FE491D901F1E06A177B07FB
:1008D00098F0CF2FCE2329F0C0912201D09123018F
:1008E00004C0C0912401D0912501D0930041C09350
:1008F00000411196FF0FEACF0196D3CF4AE250E0B4
:1009000040930040909300418093004190930041B8
:10091000809300418CE290E080930040621773075F
:1009200058F080912401909125019093004180938B
:1009300000412F5F3F4FF2CF80911E0190911F0128
:10094000069690931F0180931E012091180130910B
:1009500019018217930768F010921F0110921E016F
:10096000809120019091210108969093210180931C
:100970002001DF91CF911F910F91FF90EF90DF90B9
:10098000CF9008951F93CF93DF93EC0110E0FE0109
:10099000E10FF11D8081882321F00E94F6031F5F83
:1009A000F6CFDF91CF911F91089590931F0180930F
:1009B0001E017093210160932001089590932301FB
:1009C00080932201709325016093240108951F9361
:1009D000CF93DF93EC0170931F0160931E0150933E
:1009E00021014093200110E0FE01E10FF11D808103
:1009F000882321F00E94F6031F5FF6CFDF91CF918D
:100A00001F910895BF92CF92DF92EF92FF920F93C2
:100A10001F93CF93DF931F92CDB7DEB7DE011D96F4
:100A2000ED91FD918D0180E3B82E8081882309F43A
:100A300067C06F01853209F05CC082E0C80ED11C2E
:100A40009181992309F450C09436E9F074F49236F8
:100A5000B9F1933609F041C0780192E0E90EF11C3A
:100A6000F80180810E94F60329C09F36E1F0933798
:100A7000A1F57801F2E0EF0EF11CF801808191817F
:100A80000E94C2041BC0F801E080F1800E5F1F4F7E
:100A9000F7FC03C080E38E0D2FC08DE20E94F603A9
:100AA0008B2D8E1929C07801F2E0EF0EF11C60E069
:100AB00070E0F801808191810E94DE0487011EC0F0
:100AC000F801808191810E5F1F4F892B19F080E022
:100AD00091E00CC085E091E009C085E299830E9415
:100AE000F6039981892F08C08BE091E00E94C2042F
:100AF00005C09FEFC91AD90A0E94F603F60195CFE7
:100B00000F90DF91CF911F910F91FF90EF90DF90A9
:100B1000CF90BF90089520911801309119012817A6
:100B2000390738F120911A0130911B012617370738
:100B300000F12BE230E0209300407093004160937D
:100B4000004170930041609300412AE230E020931D
:100B50000040909300418093004190930041809326
:100B600000418CE290E0809300405093004140931C
:100B7000004108952F923F924F925F926F927F9221
:100B80008F929F92AF92BF92CF92DF92EF92FF929D
:100B90000F931F93CF93DF93EC017A01180180919B
:100BA0001801909119018C179D0720F4861797075B
:100BB00008F473C080911A0190911B018E159F0556
:100BC00020F48217930708F468C06C1B7D0B2E1964
:100BD0003F096B0177FF04C0CC24DD24C61AD70A75
:100BE000890137FF04C000271127021B130B77FD73
:100BF00009C091E080E0161617060CF090E0A92ECF
:100C0000B82E03C0AA24AA94BA2C37FD09C091E0DB
:100C100080E0121613060CF090E0492E582E03C007
:100C200044244A94542CC016D106E0F04601969410
:100C30008794612C712C6C147D0479F1800E911EC7
:100C40008C149D0420F08C189D08E40CF51CCA0D32
:100C5000DB1DA101B701CE010E948B058FEF681A41
:100C6000780AE9CF480196948794612C712C8C0CFA
:100C70009D1C8016910620F0801A910ACA0DDB1D7A
:100C8000E40CF51CA101B701CE010E948B058FEF8A
:100C9000681A780A6016710651F7DF91CF911F919B
:100CA0000F91FF90EF90DF90CF90BF90AF909F900B
:100CB0008F907F906F905F904F903F902F9008950E
:100CC0000F931F9380912601909127012091180185
:100CD000309119012E5C3F4F82179307E8F4BC0155
:100CE000665B7F4F00912401109125019B0142E337
:100CF00050E0C1960E94BA0580912601909127018B
:100D0000BC01655B7F4F0FEF17E09B0142E350E0B2
:100D1000C2960E94BA0504C01092270110922601C3
:100D20001F910F9108951F920F920FB60F921124E9
:100D30008F939F9380912601909127010196909324
:100D40002701809326019F918F910F900FBE0F90E6
:100D50001F90189580E880936100109261000E94B6
:100D600050038DE30E94DA01EE9A1092270110924F
:100D700026018FEF9FEF90938900809388007894ED
:100D80000E946006FDCF0CD0E6C0DED040F0D5D08A
:100D900030F021F45F3F19F0C7C0511110C1CAC033
:100DA000EBD098F39923C9F35523B1F3951B550B59
:100DB000BB27AA2762177307840738F09F5F5F4F2E
:100DC000220F331F441FAA1FA9F333D00E2E3AF06F
:100DD000E0E830D091505040E695001CCAF729D089
:100DE000FE2F27D0660F771F881FBB1F26173707D8
:100DF0004807AB07B0E809F0BB0B802DBF01FF2708
:100E000093585F4F2AF09E3F510568F08DC0D7C0C0
:100E10005F3FECF3983EDCF3869577956795B79541
:100E2000F7959F5FC9F7880F911D9695879597F95C
:100E30000895E1E0660F771F881FBB1F62177307D5
:100E40008407BA0720F0621B730B840BBA0BEE1FEA
:100E500088F7E095089598D088F09F5790F0B92FC3
:100E60009927B751A0F0D1F0660F771F881F991FFF
:100E70001AF0BA95C9F712C0B13081F09FD0B1E035
:100E800008959CC0672F782F8827B85F39F0B93F45
:100E9000CCF3869577956795B395D9F73EF4909501
:100EA0008095709561957F4F8F4F9F4F0895E8947F
:100EB00009C097FB3EF490958095709561957F4FA2
:100EC0008F4F9F4F9923A9F0F92F96E9BB27939550
:100ED000F695879577956795B795F111F8CFFAF460
:100EE000BB0F11F460FF1BC06F5F7F4F8F4F9F4F91
:100EF00016C0882311F096E911C0772321F09EE8EF
:100F0000872F762F05C0662371F096E8862F70E054
:100F100060E02AF09A95660F771F881FDAF7880F2E
:100F20009695879597F9089597F99F6780E870E0FF
:100F300060E008959FEF80EC089500240A9416164F
:100F4000170618060906089500240A9412161306B7
:100F5000140605060895092E0394000C11F4882345
:100F600052F0BB0F40F4BF2B11F460FF04C06F5F61
:100F70007F4F8F4F9F4F089557FD9058440F551F37
:100F800059F05F3F71F04795880F97FB991F61F00B
:100F90009F3F79F087950895121613061406551F82
:100FA000F2CF4695F1DF08C0161617061806991FEE
:100FB000F1CF86957105610508940895E894BB27E3
:0E0FC00066277727CB0197F90895F894FFCFA5
:100FCE00747275650066616C73650021464F524DF3
:080FDE00415420454F5321004E
:00000001FF
