:100000000C9449010C9468010C9468010C946801EB
:100010000C9468010C9468010C9468010C94AF086E
:100020000C9468010C9468010C9468010C946801AC
:100030000C9468010C9468010C9468010C9468019C
:100040000C9468010C9468010C9468010C9468018C
:100050000C9468010C9468010C9468010C9468017C
:100060000C9468010C9468010C9468010C9468016C
:100070000C9468010C9468010C9468010C9468015C
:100080000C9468010C9468010C9468010C9468014C
:100090000C9468010C94680105A84CCDB2D44EB9FB
:1000A0003836A9020C50B9918688083CA6AAAA2A1B
:1000B000BE000000803F000000000000005F000064
:1000C0000003000300143E143E14242A7F2A124326
:1000D0003308666136495522500005030000001CB4
:1000E0002241000041221C0014083E081408083E6A
:1000F0000808005030000008080808080060600088
:100100000020100804023E5149453E0004027F00D1
:10011000426151494622414949361814127F10273D
:10012000454545393E49494932010171090736497A
:10013000494936264949493E0036360000005636C0
:100140000000081422410014141414140041221455
:100150000802015109063E4159555E7E0909097E92
:100160007F494949363E414141227F4141413E7FDD
:10017000494949417F090909013E4141493A7F08FE
:1001800008087F00417F4100304040403F7F081415
:1001900022417F404040407F020C027F7F020408E2
:1001A0007F3E4141413E7F090909061E2121215E12
:1001B0007F09090976264949493201017F01013F3A
:1001C0004040403F1F2040201F7F2010207F4122C1
:1001D0001C224107087008076151494543007F41CF
:1001E000000002040810200000417F000402010208
:1001F0000440404040400001020400205454547820
:100200007F444444383844444444384444447F3868
:100210005454541804047E0505085454543C7F0873
:1002200004047800447D40002040443D007F1028B5
:10023000440000417F40007C047804787C0804047A
:100240007838444444387C14141408081414147C7A
:10025000007C080404485454542004043F44443CA3
:100260004040207C1C2040201C3C4030403C442826
:100270001028440C5050503C4464544C4400083600
:10028000414100007F0000414136080002010204A4
:10029000020011241FBECFEFD0E2DEBFCDBF11E0C0
:1002A000A0E0B1E0E0EFF6E100E00BBF02C0079094
:1002B0000D92A832B107D9F711E0A8E2B1E001C070
:1002C0001D92AC33B107E1F70E94E0080C94760B65
:1002D0000C940000FC0120813181260F371F3183EF
:1002E00020830895FC0122813381260F371F338339
:1002F00022830895FC0124813581260F371F358321
:10030000248308954F925F926F927F928F929F9273
:10031000AF92BF92CF92DF92EF92FF920F931F9313
:10032000CF93DF93CDB7DEB728970FB6F894DEBF33
:100330000FBECDBF8C01882777FD8095982F0E9436
:10034000040A2BED3FE049E450E40E94C90A20E092
:1003500030E044E353E40E9469096B017C010E9490
:1003600066092B013C01C701B6010E942C0B698371
:100370007A838B839C83F80162817381882777FD60
:100380008095982F0E94040A4B015C01F80164815A
:100390007581882777FD8095982F0E94040A6B014C
:1003A0007C01A3019201C501B4010E94C90A6D83B9
:1003B0007E838F83988729813A814B815C81C70135
:1003C000B6010E94C90A9B01AC016D817E818F81BB
:1003D00098850E9401090E94D109F8017383628304
:1003E00029813A814B815C81C501B4010E94C90A0F
:1003F0004B015C01A3019201C701B6010E94C90A29
:100400009B01AC01C501B4010E9402090E94D109FF
:10041000F8017583648328960FB6F894DEBF0FBE8B
:10042000CDBFDF91CF911F910F91FF90EF90DF90A3
:10043000CF90BF90AF909F908F907F906F905F9084
:100440004F9008954F925F926F927F928F929F92FA
:10045000AF92BF92CF92DF92EF92FF920F931F93D2
:10046000CF93DF93CDB7DEB728970FB6F894DEBFF2
:100470000FBECDBF8C01882777FD8095982F0E94F5
:10048000040A2BED3FE049E450E40E94C90A20E051
:1004900030E044E353E40E9469096B017C010E944F
:1004A000660969837A838B839C83C701B6010E94A6
:1004B0002C0B2B013C01F80164817581882777FDA5
:1004C0008095982F0E94040A4B015C01F80160811D
:1004D0007181882777FD8095982F0E94040A6B010F
:1004E0007C01A3019201C501B4010E94C90A6D8378
:1004F0007E838F83988729813A814B815C81C701F4
:10050000B6010E94C90A9B01AC016D817E818F8179
:1005100098850E9402090E94D109F80171836083C5
:1005200029813A814B815C81C501B4010E94C90ACD
:100530004B015C01A3019201C701B6010E94C90AE7
:100540009B01AC01C501B4010E9401090E94D109BF
:10055000F8017583648328960FB6F894DEBF0FBE4A
:10056000CDBFDF91CF911F910F91FF90EF90DF9062
:10057000CF90BF90AF909F908F907F906F905F9043
:100580004F9008954F925F926F927F928F929F92B9
:10059000AF92BF92CF92DF92EF92FF920F931F9391
:1005A000CF93DF93CDB7DEB728970FB6F894DEBFB1
:1005B0000FBECDBF8C01882777FD8095982F0E94B4
:1005C000040A2BED3FE049E450E40E94C90A20E010
:1005D00030E044E353E40E9469096B017C010E940E
:1005E00066092B013C01C701B6010E942C0B6983EF
:1005F0007A838B839C83F80160817181882777FDE2
:100600008095982F0E94040A4B015C01F8016281D9
:100610007381882777FD8095982F0E94040A6B01CB
:100620007C01A3019201C501B4010E94C90A6D8336
:100630007E838F83988729813A814B815C81C701B2
:10064000B6010E94C90A9B01AC016D817E818F8138
:1006500098850E9401090E94D109F8017183608385
:1006600029813A814B815C81C501B4010E94C90A8C
:100670004B015C01A3019201C701B6010E94C90AA6
:100680009B01AC01C501B4010E9402090E94D1097D
:10069000F8017383628328960FB6F894DEBF0FBE0D
:1006A000CDBFDF91CF911F910F91FF90EF90DF9021
:1006B000CF90BF90AF909F908F907F906F905F9002
:1006C0004F9008950895FC0146815781628173819E
:1006D000808191810C94C50740913401509135017E
:1006E000FC0162817381808191810C94C50793E83C
:1006F0009093B00091E09093B1008093B30008957F
:1007000090932D0180932C0126E330E0209300404C
:10071000009779F480EF90E090932901809328016D
:1007200080E491E090932B0180932A0188E490E08B
:1007300034C08130910579F480E491E090932901EF
:100740008093280180EF90E090932B0180932A0101
:1007500088EE90E022C08230910579F480EF90E03D
:10076000909329018093280180E491E090932B01DC
:1007700080932A0188E890E010C0039781F480E418
:1007800091E0909329018093280180EF90E090936D
:100790002B0180932A0188E290E0809300418AE255
:1007A00090E08093004080E090E09093004180933F
:1007B0000041809128019091290101979093004177
:1007C000809300418BE290E08093004080E090E0D5
:1007D000909300418093004180912A0190912B01D8
:1007E000019790930041809300410895CF938737FC
:1007F00050F4883050F08D3350F48F3150F4803104
:1008000050F0C2E009C086E702C088E004C0C0E042
:1008100003C0C1E001C0C3E021EB30E02093004001
:10082000C0930041682F70E080E090E00E94040ACD
:100830009B01AC0160E070E080EF94E40E946909E4
:100840000E94D60970E002C075956795CA95E2F7D7
:1008500060930041CF9108950F931F93CF93DF933F
:10086000CDB7DEB728970FB6F894DEBF0FBECDBF69
:1008700029833A834B835C836D837E838F83988740
:1008800069817A812B813C814D815E818F81988540
:10089000EAE2F0E0E0930040709300416093004191
:1008A0003093004120930041EBE2F0E0E093004000
:1008B0005093004140930041909300418093004148
:1008C000ECE2F0E0E09300402F5F3F4F261B370B38
:1008D0000196841B950B2817390790F4682F6770D1
:1008E000629FA001639F500D112473E09695879538
:1008F0007A95E1F7829FB001839F700D112411C09A
:10090000622F6770689FA001699F500D112463E0FA
:10091000369527956A95E1F7289FB001299F700DBC
:100920001124842F8770815028F010930041009388
:100930000041F9CFCA0123E0969587952A95E1F702
:10094000860F971F019708F1109300410093004113
:100950001093004100930041109300410093004127
:100960001093004100930041109300410093004117
:100970001093004100930041109300410093004107
:100980001093004100930041DDCF28960FB6F894F4
:10099000DEBF0FBECDBFDF91CF911F910F910895A4
:1009A000EF92FF920F931F93CF93DF93CDB7DEB7F4
:1009B00028970FB6F894DEBF0FBECDBF29833A83C8
:1009C0004B835C836D837E838F83988789819A8133
:1009D000EB80FC806D817E81AF81B8852AE230E0BA
:1009E000209300409093004180930041F092004199
:1009F000E09200412BE230E02093004070930041F0
:100A000060930041B0930041A09300412CE230E09C
:100A100020930040E816F906A0F0A8019B018A0186
:100A2000A217B30760F04E5F5F4FF801008111819C
:100A300010930041009300412F5F3F4FF0CF01968C
:100A4000E9CF28960FB6F894DEBF0FBECDBFDF9179
:100A5000CF911F910F91FF90EF9008950F931F93E7
:100A6000CF93DF93CDB7DEB728970FB6F894DEBFEC
:100A70000FBECDBF10922F0110922E0110923101A6
:100A8000109230011A8219828091280190912901D7
:100A90000197482F9C838B831E821D8280912A019F
:100AA00090912B01019798878F83009134011091C9
:100AB000350120E03A815C8160E07E8198850E946A
:100AC0002C0428960FB6F894DEBF0FBECDBFDF9181
:100AD000CF911F910F91089586E08093750080E873
:100AE000809374003F9A249A8FEC97E00197F1F776
:100AF00000C0000047988FE39CE90197F1F700C020
:100B00000000479A9FEF2DEE82E0915020408040F8
:100B1000E1F700C0000088E290E08093004081E1AE
:100B200090E0809300409FEF26E781E091502040C5
:100B30008040E1F700C0000021E030E08BEC90E065
:100B4000809300402093004180EC90E0809300402F
:100B500088E096E2909300418093004120E130E0EC
:100B600081EC90E0809300402093004185EC90E080
:100B7000809300408EE395E3909300418093004181
:100B800025EB30E087EC90E080930040209300411B
:100B900021E030E086EF90E0809300402093004118
:100BA00080E090E0909300418093004125E530E0A3
:100BB0008AE390E0809300402093004181E090E040
:100BC0000E9480030E942E0510922F0110922E0188
:100BD00010923101109230011092350110923401BF
:100BE0008FEF9FEF909333018093320189E290E081
:100BF000809300409FE728E381E0915020408040AF
:100C0000E1F700C0000020E030E085E390E0809351
:100C1000004020930041EAE6F0E08081806280831A
:100C20002C9A0895CF92DF92EF92FF920F931F9329
:100C3000CF93DF93F0912E01E0912F0120913001AD
:100C4000309131018A30E1F410922F0110922E017F
:100C5000285F3F4F309331012093300180912A016A
:100C600090912B012817390708F49FC0DF91CF918D
:100C70001F910F91FF90EF90DF90CF900C942E0575
:100C800090EE980F9F3508F090C0B901695F7F4FD3
:100C9000992787FD90958097A5E0A89FA001A99F1F
:100CA000500D11244A545F4F8BE290E08093004036
:100CB00030930041209300417093004160930041C4
:100CC0008F2F9E2F8C010C5F1F4FEAE2EE2EF12C2E
:100CD000FCE2CF2ED12C481B590B0817190750F1F5
:100CE000E092004090930041809300419093004136
:100CF00080930041C0920040FA01E80FF91FE4918F
:100D0000D901F1E06A177B0798F0CF2FCE2329F0A5
:100D1000C0913201D091330104C0C0913401D0910F
:100D20003501D0930041C09300411196FF0FEACFE7
:100D30000196D3CF4AE250E04093004090930041A7
:100D40008093004190930041809300418CE290E0B9
:100D5000809300406217730758F08091340190919E
:100D6000350190930041809300412F5F3F4FF2CFB8
:100D700080912E0190912F01069690932F018093E0
:100D80002E0120912801309129018217930768F0E4
:100D900010922F0110922E0180913001909131011B
:100DA00008969093310180933001DF91CF911F918C
:100DB0000F91FF90EF90DF90CF9008951F93CF9306
:100DC000DF93EC0110E0FE01E10FF11D808188232B
:100DD00021F00E9412061F5FF6CFDF91CF911F9185
:100DE000089590932F0180932E01709331016093A9
:100DF000300108959093330180933201709335014F
:100E00006093340108951F93CF93DF93EC017093A7
:100E10002F0160932E01509331014093300110E077
:100E2000FE01E10FF11D8081882321F00E9412064E
:100E30001F5FF6CFDF91CF911F910895BF92CF92A0
:100E4000DF92EF92FF920F931F93CF93DF931F9246
:100E5000CDB7DEB7DE011D96ED91FD918D0180E3EA
:100E6000B82E8081882309F467C06F01853209F0AC
:100E70005CC082E0C80ED11C9181992309F450C056
:100E80009436E9F074F49236B9F1933609F041C022
:100E9000780192E0E90EF11CF80180810E941206AF
:100EA00029C09F36E1F09337A1F57801F2E0EF0E0B
:100EB000F11CF801808191810E94DE061BC0F801BF
:100EC000E080F1800E5F1F4FF7FC03C080E38E0DC2
:100ED0002FC08DE20E9412068B2D8E1929C0780139
:100EE000F2E0EF0EF11C60E070E0F801808191818A
:100EF0000E94FA0687011EC0F801808191810E5F71
:100F00001F4F892B19F080E191E00CC085E191E041
:100F100009C085E299830E9412069981892F08C031
:100F20008BE191E00E94DE0605C09FEFC91AD90A45
:100F30000E941206F60195CF0F90DF91CF911F917D
:100F40000F91FF90EF90DF90CF90BF900895209188
:100F5000360130913701809128019091290128179D
:100F6000390770F488E091E00E946C0361E070E062
:100F700088E091E00E94820188E091E00C94630394
:100F800010923701109236010895E0913801F091E6
:100F9000390197FD2FC020913A0130913B0128176C
:100FA000390744F19F01261B370B37FD23C0E21799
:100FB000F30704F16BE270E060930040309300416E
:100FC0002093004130930041209300412AE230E019
:100FD0002093004090930041809300419093004102
:100FE000809300418CE290E0809300405093004158
:100FF0004093004108952F923F924F925F926F92DB
:101000007F928F929F92AF92BF92CF92DF92EF9298
:10101000FF920F931F93CF93DF931801E091380154
:10102000F09139016F01C41AD50AAF01421B530B6D
:101030009A0197FF02C077FD7FC0D7FE02C037FD3F
:101040007BC040913A0150913B014817590724F465
:10105000461757070CF470C0EC15FD0524F4E21791
:10106000F3070CF469C0681B790B2C193D098B013F
:1010700077FF04C000271127061B170BE90137FF74
:1010800004C0CC27DD27C21BD30B77FD09C051E07C
:1010900040E0161617060CF050E0A52EB42E03C043
:1010A000AA24AA94BA2C37FD09C051E040E01216D8
:1010B00013060CF050E0452E542E03C044244A94ED
:1010C000542C7C010C171D07E0F04801969487947E
:1010D000612C712C6016710679F18C0E9D1E8016A4
:1010E000910620F0801A910AC40CD51CEA0CFB1C56
:1010F000A101B601C7010E94C5075FEF651A750A15
:10110000E9CF4E0196948794612C712C800E911E2C
:101110008C169D0620F08C1A9D0AEA0CFB1CC40C50
:10112000D51CA101B601C7010E94C5078FEF681A3F
:10113000780A6C167D0651F7DF91CF911F910F91C0
:10114000FF90EF90DF90CF90BF90AF909F908F90E7
:101150007F906F905F904F903F902F9008951F92D7
:101160000F920FB60F9211240BB60F922F933F934D
:101170004F935F936F937F938F939F93AF93BF939F
:10118000EF93FF93809136019091370101969093F0
:101190003701809336010E94A707FF91EF91BF911D
:1011A000AF919F918F917F916F915F914F913F91FF
:1011B0002F910F900BBE0F900FBE0F901F901895A0
:1011C00080E880936100109261000E946C058DE3BD
:1011D0000E94F603809128019091290190933B0190
:1011E00080933A0180912A0190912B0190933901CB
:1011F00080933801EE9A109237011092360178945C
:10120000FFCF5058BB27AA270ED078C141D130F06C
:1012100046D120F031F49F3F11F41EF436C10EF494
:10122000E095E7FB2CC1E92F8BD180F3BA17620759
:1012300073078407950718F071F49EF5A3C10EF4A7
:10124000E0950B2EBA2FA02D0B01B90190010C01D6
:10125000CA01A0011124FF27591B99F0593F50F4EE
:10126000503E68F11A16F040A22F232F342F442746
:10127000585FF3CF469537952795A795F04053953E
:10128000C9F77EF41F16BA0B620B730B840BBAF00E
:101290009150A1F0FF0FBB1F661F771F881FC2F779
:1012A0000EC0BA0F621F731F841F48F4879577958D
:1012B0006795B795F7959E3F08F0B3CF9395880F44
:1012C00008F09927EE0F979587950895F0D0E3954C
:1012D00026C10CD013C1E3D040F0DAD030F021F4B5
:1012E0005F3F19F0CCC051114EC1CFC029D198F346
:1012F0009923C9F35523B1F3951B550BBB27AA2797
:1013000062177307840738F09F5F5F4F220F331F08
:10131000441FAA1FA9F333D00E2E3AF0E0E830D0D4
:1013200091505040E695001CCAF729D0FE2F27D0D7
:10133000660F771F881FBB1F261737074807AB07A5
:10134000B0E809F0BB0B802DBF01FF2793585F4F1A
:101350002AF09E3F510568F092C015C15F3FECF343
:10136000983EDCF3869577956795B795F7959F5FDF
:10137000C9F7880F911D9695879597F90895E1E033
:10138000660F771F881FBB1F621773078407BA0792
:1013900020F0621B730B840BBA0BEE1F88F7E095ED
:1013A000089504D06894B111EEC00895D1D088F0AA
:1013B0009F5790F0B92F9927B751A0F0D1F0660F41
:1013C000771F881F991F1AF0BA95C9F712C0B1305C
:1013D00081F0D8D0B1E00895D5C0672F782F882745
:1013E000B85F39F0B93FCCF3869577956795B3959B
:1013F000D9F73EF490958095709561957F4F8F4F0A
:101400009F4F0895E89409C097FB3EF4909580950E
:10141000709561957F4F8F4F9F4F9923A9F0F92FBA
:1014200096E9BB279395F695879577956795B79538
:10143000F111F8CFFAF4BB0F11F460FF1BC06F5F1E
:101440007F4F8F4F9F4F16C0882311F096E911C030
:10145000772321F09EE8872F762F05C0662371F051
:1014600096E8862F70E060E02AF09A95660F771F65
:10147000881FDAF7880F9695879597F9089597F959
:101480009F6780E870E060E008959FEF80EC08952A
:1014900000240A9416161706180609060895002453
:1014A0000A9412161306140605060895EECF50D0BE
:1014B000E8F3E894E0E0BB279F57F0F02AED3FE027
:1014C00049EC06C0EE0FBB0F661F771F881F28F080
:1014D000B23A62077307840728F0B25A620B730BA3
:1014E000840BE3959A9572F7803830F49A95BB0F88
:1014F000661F771F881FD2F79048B6C0092E039445
:10150000000C11F4882352F0BB0F40F4BF2B11F4F0
:1015100060FF04C06F5F7F4F8F4F9F4F0895EF9321
:10152000E0FF06C0A2EA2AED3FE049EC5FEB7BDE7C
:10153000E5DF0F90039401FC9058E8E9F0E0A0C0CB
:1015400057FD9058440F551F59F05F3F71F0479574
:10155000880F97FB991F61F09F3F79F08795089559
:10156000121613061406551FF2CF4695F1DF08C078
:10157000161617061806991FF1CF86957105610595
:1015800008940895E894BB2766277727CB0197F93D
:1015900008950BD0B3CF7CDF28F081DF18F09523BE
:1015A00009F06DCF72CF1124EECFCADFA0F3959F63
:1015B000D1F3950F50E0551F629FF001729FBB273A
:1015C000F00DB11D639FAA27F00DB11DAA1F649FE6
:1015D0006627B00DA11D661F829F2227B00DA11D99
:1015E000621F739FB00DA11D621F839FA00D611D1F
:1015F000221F749F3327A00D611D231F849F600D40
:10160000211D822F762F6A2F11249F5750408AF078
:10161000E1F088234AF0EE0FFF1FBB1F661F771F04
:10162000881F91505040A9F79E3F510570F027CF79
:10163000AACF5F3FECF3983EDCF3869577956795EC
:10164000B795F795E7959F5FC1F7FE2B880F911D22
:101650009695879597F908959F9329DF0F9007FC3A
:10166000EE5F5DCF9F3F31F0915020F487957795E5
:101670006795B795880F911D9695879597F9089569
:101680009F938F937F936F93FF93EF939B01AC0195
:1016900080DFEF91FF9105D02F913F914F915F91A6
:1016A00078CFDF93CF931F930F93FF92EF92DF9248
:1016B0007B018C01689405C0DA2EEF0176DFFE0114
:1016C000E894A5912591359145915591AEF3EF019F
:1016D000AADDFE019701A801DA9479F7DF90EF9077
:1016E000FF900F911F91CF91DF910895F894FFCF54
:1016F00000000000010000F8A000780001001F00B9
:10170000747275650066616C73650021464F524DB9
:08171000415420454F53210014
:00000001FF
