:100000000C9449010C9468010C9468010C946801EB
:100010000C9468010C9468010C9468010C94CB0852
:100020000C9468010C9468010C9468010C946801AC
:100030000C9468010C9468010C9468010C9468019C
:100040000C9468010C9468010C9468010C9468018C
:100050000C9468010C9468010C9468010C9468017C
:100060000C9468010C9468010C9468010C9468016C
:100070000C9468010C9468010C9468010C9468015C
:100080000C9468010C9468010C9468010C9468014C
:100090000C9468010C94680105A84CCDB2D44EB9FB
:1000A0003836A9020C50B9918688083CA6AAAA2A1B
:1000B000BE000000803F000000000000005F000064
:1000C0000003000300143E143E14242A7F2A124326
:1000D0003308666136495522500005030000001CB4
:1000E0002241000041221C0014083E081408083E6A
:1000F0000808005030000008080808080060600088
:100100000020100804023E5149453E0004027F00D1
:10011000426151494622414949361814127F10273D
:10012000454545393E49494932010171090736497A
:10013000494936264949493E0036360000005636C0
:100140000000081422410014141414140041221455
:100150000802015109063E4159555E7E0909097E92
:100160007F494949363E414141227F4141413E7FDD
:10017000494949417F090909013E4141493A7F08FE
:1001800008087F00417F4100304040403F7F081415
:1001900022417F404040407F020C027F7F020408E2
:1001A0007F3E4141413E7F090909061E2121215E12
:1001B0007F09090976264949493201017F01013F3A
:1001C0004040403F1F2040201F7F2010207F4122C1
:1001D0001C224107087008076151494543007F41CF
:1001E000000002040810200000417F000402010208
:1001F0000440404040400001020400205454547820
:100200007F444444383844444444384444447F3868
:100210005454541804047E0505085454543C7F0873
:1002200004047800447D40002040443D007F1028B5
:10023000440000417F40007C047804787C0804047A
:100240007838444444387C14141408081414147C7A
:10025000007C080404485454542004043F44443CA3
:100260004040207C1C2040201C3C4030403C442826
:100270001028440C5050503C4464544C4400083600
:10028000414100007F0000414136080002010204A4
:10029000020011241FBECFEFD0E2DEBFCDBF11E0C0
:1002A000A0E0B1E0EEEFF6E100E00BBF02C0079086
:1002B0000D92A032B107D9F711E0A0E2B1E001C080
:1002C0001D92A033B107E1F70E94FC080C947D0B4E
:1002D0000C940000FC0120813181260F371F3183EF
:1002E00020830895FC0122813381260F371F338339
:1002F00022830895FC0124813581260F371F358321
:10030000248308954F925F926F927F928F929F9273
:10031000AF92BF92CF92DF92EF92FF920F931F9313
:10032000CF93DF93CDB7DEB728970FB6F894DEBF33
:100330000FBECDBF8C01882777FD8095982F0E9436
:100340000B0A2BED3FE049E450E40E94D00A20E084
:1003500030E044E353E40E9475096B017C010E9484
:1003600072092B013C01C701B6010E94330B69835E
:100370007A838B839C83F8016281738180E090E0B3
:100380000E94090A4B015C01F8016481758180E0DB
:1003900090E00E94090A6B017C01A3019201C50152
:1003A000B4010E94D00A6D837E838F839887298150
:1003B0003A814B815C81C701B6010E94D00A9B0142
:1003C000AC016D817E818F8198850E940D090E940C
:1003D000DD09F8017383628329813A814B815C8155
:1003E000C501B4010E94D00A4B015C01A301920136
:1003F000C701B6010E94D00A9B01AC01C501B4013E
:100400000E940E090E94DD09F80175836483289615
:100410000FB6F894DEBF0FBECDBFDF91CF911F9115
:100420000F91FF90EF90DF90CF90BF90AF909F9093
:100430008F907F906F905F904F9008954F925F9252
:100440006F927F928F929F92AF92BF92CF92DF92E4
:10045000EF92FF920F931F93CF93DF93CDB7DEB749
:1004600028970FB6F894DEBF0FBECDBF8C0188274A
:1004700077FD8095982F0E940B0A2BED3FE049E411
:1004800050E40E94D00A20E030E044E353E40E94AC
:1004900075096B017C010E94720969837A838B83E1
:1004A0009C83C701B6010E94330B2B013C01F8016C
:1004B0006481758180E090E00E94090A4B015C0133
:1004C000F8016081718180E090E00E94090A6B016F
:1004D0007C01A3019201C501B4010E94D00A6D8381
:1004E0007E838F83988729813A814B815C81C70104
:1004F000B6010E94D00A9B01AC016D817E818F8183
:1005000098850E940E090E94DD09F80171836083BD
:1005100029813A814B815C81C501B4010E94D00AD6
:100520004B015C01A3019201C701B6010E94D00AF0
:100530009B01AC01C501B4010E940D090E94DD09B7
:10054000F8017583648328960FB6F894DEBF0FBE5A
:10055000CDBFDF91CF911F910F91FF90EF90DF9072
:10056000CF90BF90AF909F908F907F906F905F9053
:100570004F9008954F925F926F927F928F929F92C9
:10058000AF92BF92CF92DF92EF92FF920F931F93A1
:10059000CF93DF93CDB7DEB728970FB6F894DEBFC1
:1005A0000FBECDBF8C01882777FD8095982F0E94C4
:1005B0000B0A2BED3FE049E450E40E94D00A20E012
:1005C00030E044E353E40E9475096B017C010E9412
:1005D00072092B013C01C701B6010E94330B6983EC
:1005E0007A838B839C83F8016081718180E090E045
:1005F0000E94090A4B015C01F8016281738180E06D
:1006000090E00E94090A6B017C01A3019201C501DF
:10061000B4010E94D00A6D837E838F8398872981DD
:100620003A814B815C81C701B6010E94D00A9B01CF
:10063000AC016D817E818F8198850E940D090E9499
:10064000DD09F8017183608329813A814B815C81E6
:10065000C501B4010E94D00A4B015C01A3019201C3
:10066000C701B6010E94D00A9B01AC01C501B401CB
:100670000E940E090E94DD09F801738362832896A7
:100680000FB6F894DEBF0FBECDBFDF91CF911F91A3
:100690000F91FF90EF90DF90CF90BF90AF909F9021
:1006A0008F907F906F905F904F9008950895FC0118
:1006B0004681578162817381808191810C94F60714
:1006C00040912C0150912D01FC0162817381808148
:1006D00091810C94F6070F931F93CF93DF93EC0156
:1006E0008B010E94600388819981800F911F9983FB
:1006F0008883CE01DF91CF911F910F910C94570306
:100700000F931F93CF93DF93EC018B010E94600343
:100710008A819B81800F911F9B838A83CE01DF9109
:10072000CF911F910F910C9457030F931F93CF9369
:10073000DF93EC018B010E9460038C819D81800F0F
:10074000911F9D838C83CE01DF91CF911F910F91DB
:100750000C94570393E89093B00091E09093B1000C
:100760008093B3000895909325018093240126E39C
:1007700030E020930040009779F480EF90E0909370
:1007800021018093200180E491E0909323018093E4
:10079000220188E490E034C08130910579F480E44E
:1007A00091E0909321018093200180EF90E090935D
:1007B00023018093220188EE90E022C082309105CF
:1007C00079F480EF90E0909321018093200180E400
:1007D00091E0909323018093220188E890E010C07B
:1007E000039781F480E491E09093210180932001AC
:1007F00080EF90E0909323018093220188E290E0C3
:10080000809300418AE290E08093004080E090E095
:1008100090930041809300418091200190912101AB
:10082000019790930041809300418BE290E0809388
:10083000004080E090E090930041809300418091DF
:1008400022019091230101979093004180930041F0
:100850000895CF93873750F4883050F08D3350F49B
:100860008F3150F4803150F0C2E009C086E702C0F9
:1008700088E004C0C0E003C0C1E001C0C3E021EBD8
:1008800030E020930040C0930041682F70E080E08A
:1008900090E00E940B0A9B01AC0160E070E080EFE9
:1008A00094E40E9475090E94DD0970E002C075950C
:1008B0006795CA95E2F760930041CF9108950F9331
:1008C0001F93CF93DF93CDB7DEB728970FB6F89479
:1008D000DEBF0FBECDBF29833A834B835C836D831C
:1008E0007E838F83988769817A812B813C814D81BA
:1008F0005E818F819885EAE2F0E0E093004070939A
:100900000041609300413093004120930041EBE2AD
:10091000F0E0E093004050930041409300419093F9
:10092000004180930041ECE2F0E0E09300402F5F53
:100930003F4F261B370B0196841B950B2817390751
:1009400090F4682F6770629FA001639F500D11247F
:1009500073E0969587957A95E1F7829FB001839F22
:10096000700D112411C0622F6770689FA001699FEC
:10097000500D112463E0369527956A95E1F7289F7D
:10098000B001299F700D1124842F8770815028F0A9
:100990001093004100930041F9CFCA0123E09695DE
:1009A00087952A95E1F7860F971F019708F1109315
:1009B00000410093004110930041009300411093C7
:1009C00000410093004110930041009300411093B7
:1009D00000410093004110930041009300411093A7
:1009E0000041009300411093004100930041DDCF8E
:1009F00028960FB6F894DEBF0FBECDBFDF91CF9122
:100A00001F910F910895EF92FF920F931F93CF9331
:100A1000DF93CDB7DEB728970FB6F894DEBF0FBED1
:100A2000CDBF29833A834B835C836D837E838F8321
:100A3000988789819A81EB80FC806D817E81AF816E
:100A4000B8852AE230E020930040909300418093E3
:100A50000041F0920041E09200412BE230E020930F
:100A600000407093004160930041B0930041A09317
:100A700000412CE230E020930040E816F906A0F097
:100A8000A8019B018A01A217B30760F04E5F5F4F78
:100A9000F8010081118110930041009300412F5F04
:100AA0003F4FF0CF0196E9CF28960FB6F894DEBFFE
:100AB0000FBECDBFDF91CF911F910F91FF90EF90AF
:100AC00008950F931F93CF93DF93CDB7DEB7289789
:100AD0000FB6F894DEBF0FBECDBF10922701109263
:100AE000260110922901109228011A821982809100
:100AF0002001909121010197482F9C838B831E82B6
:100B00001D828091220190912301019798878F8304
:100B100000912C0110912D0120E03A815C8160E070
:100B20007E8198850E945F0428960FB6F894DEBFF8
:100B30000FBECDBFDF91CF911F910F91089586E039
:100B40008093750080E8809374003F9A249A8FEC1C
:100B500097E00197F1F700C0000047988FE39CE908
:100B60000197F1F700C00000479A9FEF2DEE82E059
:100B7000915020408040E1F700C0000088E290E002
:100B80008093004081E190E0809300409FEF26E752
:100B900081E0915020408040E1F700C0000021E05A
:100BA00030E08BEC90E0809300402093004180EC9B
:100BB00090E08093004088E096E29093004180931B
:100BC000004120E130E081EC90E0809300402093F0
:100BD000004185EC90E0809300408EE395E3909394
:100BE00000418093004125EB30E087EC90E080935A
:100BF00000402093004121E030E086EF90E08093B8
:100C000000402093004180E090E090930041809369
:100C1000004125E530E08AE390E080930040209396
:100C2000004181E090E00E94B3030E9461051092B0
:100C3000270110922601109229011092280110928A
:100C40002D0110922C018FEF9FEF90932B01809339
:100C50002A0189E290E0809300409FE728E381E049
:100C6000915020408040E1F700C0000020E030E0DB
:100C700085E390E08093004020930041EAE6F0E0B5
:100C80008081806280832C9A0895CF92DF92EF92C8
:100C9000FF920F931F93CF93DF93F0912601E09182
:100CA000270120912801309129018A30E1F4109226
:100CB000270110922601285F3F4F3093290120938E
:100CC000280180912201909123012817390708F407
:100CD0009FC0DF91CF911F910F91FF90EF90DF9018
:100CE000CF900C94610590EE980F9F3508F090C05E
:100CF000B901695F7F4F992787FD90958097A5E09F
:100D0000A89FA001A99F500D11244A545F4F8BE268
:100D100090E0809300403093004120930041709315
:100D20000041609300418F2F9E2F8C010C5F1F4F5D
:100D3000EAE2EE2EF12CFCE2CF2ED12C481B590B0F
:100D40000817190750F1E0920040909300418093FA
:100D500000419093004180930041C0920040FA010D
:100D6000E80FF91FE491D901F1E06A177B0798F0C9
:100D7000CF2FCE2329F0C0912A01D0912B0104C09E
:100D8000C0912C01D0912D01D0930041C09300411E
:100D90001196FF0FEACF0196D3CF4AE250E040937D
:100DA00000409093004180930041909300418093D4
:100DB00000418CE290E0809300406217730758F086
:100DC00080912C0190912D019093004180930041DE
:100DD0002F5F3F4FF2CF8091260190912701069619
:100DE00090932701809326012091200130912101C9
:100DF0008217930768F010922701109226018091C4
:100E00002801909129010896909329018093280147
:100E1000DF91CF911F910F91FF90EF90DF90CF90D6
:100E200008951F93CF93DF93EC0110E0FE01E10FD3
:100E3000F11D8081882321F00E9445061F5FF6CFB7
:100E4000DF91CF911F910895909327018093260100
:100E50007093290160932801089590932B0180934A
:100E60002A0170932D0160932C0108951F93CF9355
:100E7000DF93EC01709327016093260150932901C1
:100E80004093280110E0FE01E10FF11D80818823CD
:100E900021F00E9445061F5FF6CFDF91CF911F9191
:100EA0000895BF92CF92DF92EF92FF920F931F931C
:100EB000CF93DF931F92CDB7DEB7DE011D96ED9184
:100EC000FD918D0180E3B82E8081882309F467C0ED
:100ED0006F01853209F05CC082E0C80ED11C91819F
:100EE000992309F450C09436E9F074F49236B9F1BC
:100EF000933609F041C0780192E0E90EF11CF80147
:100F000080810E94450629C09F36E1F09337A1F504
:100F10007801F2E0EF0EF11CF801808191810E94CE
:100F200011071BC0F801E080F1800E5F1F4FF7FC36
:100F300003C080E38E0D2FC08DE20E9445068B2DED
:100F40008E1929C07801F2E0EF0EF11C60E070E02C
:100F5000F801808191810E942D0787011EC0F80150
:100F6000808191810E5F1F4F892B19F088E091E0FD
:100F70000CC08DE091E009C085E299830E9445068E
:100F80009981892F08C083E191E00E94110705C073
:100F90009FEFC91AD90A0E944506F60195CF0F9016
:100FA000DF91CF911F910F91FF90EF90DF90CF9045
:100FB000BF90089520912E0130912F018091200142
:100FC000909121012817390760F461E070E080E01A
:100FD00091E00E946B0361E070E080E091E00C948E
:100FE000800310922F0110922E010895209120016C
:100FF000309121012817390738F1209122013091D1
:1010000023012617370700F12BE230E02093004040
:1010100070930041609300417093004160930041E0
:101020002AE230E0209300409093004180930041F9
:1010300090930041809300418CE290E080930040C7
:10104000509300414093004108952F923F924F9258
:101050005F926F927F928F929F92AF92BF92CF9248
:10106000DF92EF92FF920F931F93CF93DF93EC01E8
:101070007A01180180912001909121018C179D0720
:1010800020F48617970708F473C08091220190918D
:1010900023018E159F0520F48217930708F468C07A
:1010A0006C1B7D0B2E193F096B0177FF04C0CC240C
:1010B000DD24C61AD70A890137FF04C0002711278B
:1010C000021B130B77FD09C091E080E0161617068E
:1010D0000CF090E0A92EB82E03C0AA24AA94BA2C32
:1010E00037FD09C091E080E0121613060CF090E085
:1010F000492E582E03C044244A94542CC016D106BD
:10110000E0F0460196948794612C712C6C147D0458
:1011100079F1800E911E8C149D0420F08C189D088E
:10112000E40CF51CCA0DDB1DA101B701CE010E9424
:10113000F6078FEF681A780AE9CF480196948794EA
:10114000612C712C8C0C9D1C8016910620F0801A4D
:10115000910ACA0DDB1DE40CF51CA101B701CE01FB
:101160000E94F6078FEF681A780A6016710651F729
:10117000DF91CF911F910F91FF90EF90DF90CF9073
:10118000BF90AF909F908F907F906F905F904F90A7
:101190003F902F9008951F920F920FB60F92112437
:1011A0000BB60F922F933F934F935F936F937F9361
:1011B0008F939F93AF93BF93EF93FF9380912E01F3
:1011C00090912F01019690932F0180932E010E9400
:1011D000DA07FF91EF91BF91AF919F918F917F912E
:1011E0006F915F914F913F912F910F900BBE0F9098
:1011F0000FBE0F901F90189580E8809361001092A9
:1012000061000E949F058DE30E942904EE9A1092CE
:101210002F0110922E017894FFCF5058BB27AA2798
:101220000ED073C13CD130F041D120F031F49F3F5A
:1012300011F41EF431C10EF4E095E7FB27C1E92F4C
:1012400086D180F3BA17620773078407950718F0F1
:1012500071F49EF59EC10EF4E0950B2EBA2FA02DD1
:101260000B01B90190010C01CA01A0011124FF2753
:10127000591B99F0593F50F4503E68F11A16F0404E
:10128000A22F232F342F4427585FF3CF469537954D
:101290002795A795F0405395C9F77EF41F16BA0B12
:1012A000620B730B840BBAF09150A1F0FF0FBB1FC0
:1012B000661F771F881FC2F70EC0BA0F621F731F09
:1012C000841F48F4879577956795B795F7959E3F66
:1012D00008F0B3CF9395880F08F09927EE0F9795F4
:1012E00087950895EBD0E39521C10CD00EC1DED0D7
:1012F00040F0D5D030F021F45F3F19F0C7C0511154
:1013000049C1CAC024D198F39923C9F35523B1F335
:10131000951B550BBB27AA2762177307840738F064
:101320009F5F5F4F220F331F441FAA1FA9F333D0C3
:101330000E2E3AF0E0E830D091505040E695001C77
:10134000CAF729D0FE2F27D0660F771F881FBB1F33
:10135000261737074807AB07B0E809F0BB0B802D0D
:10136000BF01FF2793585F4F2AF09E3F510568F059
:101370008DC010C15F3FECF3983EDCF38695779506
:101380006795B795F7959F5FC9F7880F911D96955B
:10139000879597F90895E1E0660F771F881FBB1FB7
:1013A000621773078407BA0720F0621B730B840B64
:1013B000BA0BEE1F88F7E0950895D1D088F09F57BB
:1013C00090F0B92F9927B751A0F0D1F0660F771F91
:1013D000881F991F1AF0BA95C9F712C0B13081F071
:1013E000D8D0B1E00895D5C0672F782F8827B85F8F
:1013F00039F0B93FCCF3869577956795B395D9F7D2
:101400003EF490958095709561957F4F8F4F9F4FDB
:101410000895E89409C097FB3EF4909580957095E7
:1014200061957F4F8F4F9F4F9923A9F0F92F96E930
:10143000BB279395F695879577956795B795F111A5
:10144000F8CFFAF4BB0F11F460FF1BC06F5F7F4F42
:101450008F4F9F4F16C0882311F096E911C0772354
:1014600021F09EE8872F762F05C0662371F096E85D
:10147000862F70E060E02AF09A95660F771F881F2C
:10148000DAF7880F9695879597F9089597F99F67EA
:1014900080E870E060E008959FEF80EC08950024FC
:1014A0000A941616170618060906089500240A94C9
:1014B00012161306140605060895EECF50D0E8F371
:1014C000E894E0E0BB279F57F0F02AED3FE049ECBD
:1014D00006C0EE0FBB0F661F771F881F28F0B23AB9
:1014E00062077307840728F0B25A620B730B840BF0
:1014F000E3959A9572F7803830F49A95BB0F661F82
:10150000771F881FD2F79048B6C0092E0394000CAD
:1015100011F4882352F0BB0F40F4BF2B11F460FF8D
:1015200004C06F5F7F4F8F4F9F4F0895EF93E0FF91
:1015300006C0A2EA2AED3FE049EC5FEB80DEE5DF82
:101540000F90039401FC9058E8E9F0E0A0C057FD2B
:101550009058440F551F59F05F3F71F04795880F21
:1015600097FB991F61F09F3F79F0879508951216B8
:1015700013061406551FF2CF4695F1DF08C0161664
:1015800017061806991FF1CF869571056105089415
:101590000895E894BB2766277727CB0197F908952C
:1015A0000BD0B3CF7CDF28F081DF18F0952309F052
:1015B0006DCF72CF1124EECFCADFA0F3959FD1F388
:1015C000950F50E0551F629FF001729FBB27F00DF1
:1015D000B11D639FAA27F00DB11DAA1F649F662746
:1015E000B00DA11D661F829F2227B00DA11D621F95
:1015F000739FB00DA11D621F839FA00D611D221F4F
:10160000749F3327A00D611D231F849F600D211D32
:10161000822F762F6A2F11249F5750408AF0E1F0D5
:1016200088234AF0EE0FFF1FBB1F661F771F881F1E
:1016300091505040A9F79E3F510570F027CFAACF97
:101640005F3FECF3983EDCF3869577956795B79509
:10165000F795E7959F5FC1F7FE2B880F911D969533
:10166000879597F908959F9329DF0F9007FCEE5F08
:101670005DCF9F3F31F0915020F487957795679526
:10168000B795880F911D9695879597F908959F9323
:101690008F937F936F93FF93EF939B01AC0180DF58
:1016A000EF91FF9105D02F913F914F915F9178CFAE
:1016B000DF93CF931F930F93FF92EF92DF927B0103
:1016C0008C01689405C0DA2EEF0176DFFE01E89404
:1016D000A5912591359145915591AEF3EF01AFDD7F
:1016E000FE019701A801DA9479F7DF90EF90FF905F
:0E16F0000F911F91CF91DF910895F894FFCFD5
:1016FE00A000780001001F00747275650066616CB1
:10170E0073650021464F524D415420454F532100E1
:00000001FF
